:020000040800F2
:20400000403401201942000897590208ABF701086555020809640108CD740208000000007E
:20402000000000000000000000000000DD640208D98E0108000000003D5D02080D6C02089E
:20404000334200083342000833420008334200083342000833420008859B0108939B010812
:20406000A39B0108B39B0108334200083342000833420008334200086D8901083342000832
:2040800033420008334200083342000800000000000000000000000000000000C39B010842
:2040A0003342000833420008334200086D6C02083342000833420008796C02083342000840
:2040C000334200083342000833420008334200083342000833420008334200080000000075
:2040E0008B9B0108334200083342000800000000000000000000000000000000334200081A
:204100000000000033420008856C02083342000800000000000000000000000000000000AA
:2041200033420008334200083342000833420008334200080000000000000000000000000E
:204140000000000000000000000000003342000833420008334200083342000833420008EE
:20416000334200083342000800000000000000000000000000000000000000000000000045
:2041800000000000334200080000000000000000334200084B1C012B98BF70472DE9F0037B
:2041A000911C9B08B1F80480B1F802900A8831F802CC8044814402448444D9F80070D8F816
:2041C00000601568DCF80040C9F80060C8F80070CCF800501460D9F80470D8F804605568DF
:2041E000DCF80440C9F80460C8F80470CCF80450546008315B1ED5D1BDE8F0037047DFF804
:2042000010D00EF0C3FA000000480047ED2D03084034012040BA704706488047064800475F
:20422000FEE7FEE7FEE7FEE7FEE7FEE7FEE7FEE7FEE7FEE7116C0208FF41000800000000BD
:204240002DE9F04106462DED068B0121FE48816081680029FCD1FD4901600268FC48FD495D
:204260000025824218BF0D6040F0BC800860F561B56175613561B5627562356296ED018AD2
:2042800006F110049FEDF4ABB5EEC08AF1EE10FA7DD03188480800EE100AB8EE400AB4EE22
:2042A000C80AF1EE10FA72DD08460DF0C9FF53EC1A2B0DF045FF41EC190B18EE100A0EF0AD
:2042C00004F853EC192B0DF022FE41EC190B9FEDE40A28EE000A10EE100A0DF0F6FF53EC0E
:2042E000192B0DF02DFF0DF0D7FFA08330880DF0A7FF41EC180B70680DF0E7FF9FEDDA1B74
:2043000053EC112B0DF0AAFE53EC182B0DF018FF0EF01EF807460DF0D8FF41EC100B24F056
:204320000FF89FEDD39B51EC100B53EC192B0DF095FE53EC192B0DF08EFE0EF009F808EE10
:20434000100A38460DF0C1FF41EC100B23F0F8FF53EC192B51EC100B0DF080FE9FEDC61BF3
:2043600053EC112B0DF0D3FD0DF0F2FF0DF0ADFF9FEDC31B53EC112B0DF070FE28EE080AE6
:2043800041EC190B10EE100A0DF09FFF00E02AE053EC192B0DF05CFE0DF0DAFF0DF095FFEE
:2043A00041EC100B25F054F9B0EE409AB1EE480AF0EE609A10EE100A0DF087FF53EC192BF4
:2043C0000DF0A5FD9FEDB01B53EC112B0DF046FE9FEDAF1B53EC112B0DF040FE0DF05CFFC7
:2043E000A08301E0FEE7A58396ED028AB5EEC08AF1EE10FA08BFE5831DD0358828460DF083
:204400001FFF41EC190B18EE100A0DF05EFF53EC1A2B0DF023FE53EC192B0DF078FD41ECEF
:20442000180B28020DF00CFF53EC182B0DF088FE0DF032FFE08330884FF47A71B0FBF1F01F
:204440002084BDEC068BBDE8F0812DE9FF4F81497F4A9BB00968914200D0FEE71E99002551
:204460000A6A09924A6A05928A6A019251F810CFD1E901320692CA6808921E9A94898A8BF8
:204480000292CA8B10920A8C002A40F3498104EB84021492C4EBC4021392029AC2F580725A
:2044A0000C9204EB4402129206787B4A975D07EB030AA2F58073CDF858A09F5D0CEB4708C6
:2044C000A2F5007C1CF80670065D12F8069009EB080ACDF82CA013F8068007EB480910F8C9
:2044E00014701CF80680D65D4E4413F8079008EB490A1CF80790129F10F8078012F8087084
:204500001CF808B0574413F808A010F8248009EB4A0912F808A0CA44CDF860A013F8089066
:204520001CF808A0DDF850800BEB490B10F8089012F809801CF809E0D84413F809B0DDF8EB
:2045400048900AEB4B0B10F819A012F80A90D94413F80AB00EEB4B0E1CF80AB0DDF84CA010
:20456000CDF81CB010F80AA012F80A2013F80A301CF80AC0DDF82CA07244CAEBCA0A0AEBCC
:204580004A0EDDF858A00BEB4303CAEBCA0A0EEB8A0AC6EB061BDA4407EB870B0AEB4B0BE5
:2045A000DDF860A00AEB4A0ACDF85CA00BEB4A0A08EB480BDA440AEB090BDDF820A0C9EB1C
:2045C000C909D344DDF858A009EB49090AEBCA0A4FEA8A0A0AEB4E0AC6EBC60E0EEB061E5A
:2045E0000AEB4E0A07EB470E0AEB0E1EDDF85CA006EB46060EEB0A1AC8EBC80E0EEB081E33
:204600000AEB4E0A0AEB490A02EBC20E0AEB8E0EDDF818A007EB4707F244CDF820A0DDF85A
:204620002CA07F005644DDF860A0C2EBC2020AEB8A0A07EB4A073E44C8EB08173E444E441B
:2046400006EB8202069229E000300240C2A507F4CDB5E8B5040800201F85EB51B81E194016
:204660000000804300000000182D4454FB211940000000000000004000000000000000C025
:204680000000000000001040000000000000E03F0000000000007040080A0020109EABF57B
:2046A000003266B1099EB718059E0592BF1B109E7E43F71706EB1766361209963246029E3D
:2046C00056B1019F0C9E7743029E06FB0272D61702EB1662121201921D9E7243002ACCBF8C
:2046E0000832083AD61702EB1672FF4E1211B242B8BF324605DB47F6BC769642B8BF47F6AE
:20470000BC721E9E00EBC400F68906FB05F71C9E6D1C26F817200A8CAA423FF7C5AE00BF02
:20472000C1E900C3069888600898C8600998086105984861019888611FB090B2BDE8F08FB7
:204740002DE9FF4FE949EA4A9DB00968914200D0FEE72099002410310091096905910099F9
:204760004969089100998969049100990B684A68896806910099C96809912099B1F80CC0F6
:204780000099898B03910099C98B0F910099098C002940F36281CCEBCC0118910CEBCC01ED
:2047A00017910399C1F580710B910CEB8C0116910CEB4C0111910578CE494E5D06EB020A25
:2047C000A1F58072CDF870A0565D03EB4607A1F5007310F80C6013F805808D5D3D44975D22
:2047E00008EB47089F5D10F81C6011F8069009EB080ACDF830A012F8068007EB480913F8DF
:204800000680119E875DCE5D4E4412F8079008EB490813F8079010F82C7011F807A0C244E1
:20482000CDF848A012F8078009EB480A13F80790169F10F8078011F8087013F808B057442F
:2048400012F808A0DDF8448009EB4A0910F8188011F808A0CA44CDF850A012F8089013F805
:2048600008A0DDF860800BEB490B10F8089011F8098013F809E0D84412F809B00AEB4B0B41
:2048800010F83CA011F80A90D94412F80AB00EEB4B0E13F80AB0DDF85CA0CDF808B010F843
:2048A0000AA011F80A1012F80A2013F80A30DDF870A071440BEB4202CAEB0A1A0AEB4A0ABC
:2048C00005EBC50B0AEB8B0BDDF830A0CAEBCA0A0BEB8A0AC6EBC60B0BEB4B0BD344DDF81B
:2048E00048A0CAEB0A1AD34407EB870A0BEB4A0BDDF850A00AEB4A0A0BEB4A0A08EB480B74
:20490000DA44DDF824B0CA44DA44CDF804A0DDF870A00AEBCA0BCBEB8A1AC5EB851BD344CB
:20492000DDF830A00AEB8A0E0EEB8A1ADA4406EBC60B0BEB861BD344DDF848A006EB460620
:20494000CAEB0A1A0AEB8A0ADA44C7EB071B0BEB8B0BD344DDF850A076000AEBCA0E0EEB5F
:204960008A1ADA4408EB880B0BEB881BDA44C9EB891BDA4401EBC10BCBEB811BD344DDF8CC
:2049800018A0DA44CDF824A0DDF830A00AEB4A0A5544DDF848A00AEB8A0A06EB4A06354431
:2049A000C7EB0716DDF850A03544CAEBCA0606EB46063544C8EBC80605EB860509EBC906F0
:2049C000C1EB011105EB860501EB410129440691DDF804A00F9DAAF57A3165B1059D6E18BF
:2049E000089D0891761B0F9D7543EE1705EB16652D1205952946039D55B1049E0B9D6E432B
:204A0000039D05FB0161CD1701EB1561091204911F9D69430029CCBF10311039CD1701EB28
:204A2000D561314D4911A942B8BF294605DB47F6BC758D42B8BF47F6BC71209DED8905FB66
:204A400004F61E9D641C25F81610169900EB41000099098CA1423FF7AEAE009803600098CD
:204A6000426000990698886000990998C86000990598086100990898486100990498886174
:204A80000098008C21B0BDE8F08F2DE9FF4F1749174A9BB00968914200D0FEE71E990025B8
:204AA0000A6A09924A6A05928A6A019251F810CFD1E901320692CA6808921E9A94898A8BB2
:204AC0000292CA8B10920A8C002A40F3278104EB84021492C4EBC4021392029AC2F5807236
:204AE0000C9204EB440207E04480FFFF04080020CDB5E8B5080A002012920678FE4A975D5F
:204B000007EB030A02F58073CDF858A09F5D0CEB470802F5007C1CF80670065D12F80690AD
:204B200009EB080ACDF82CA013F8068007EB480910F814701CF80680D65D4E4413F807907D
:204B400008EB490A1CF80790129F10F8078012F808701CF808B0574413F808A010F82480DC
:204B600009EB4A0912F808A0CA44CDF860A013F808901CF808A0DDF850800BEB490B10F813
:204B8000089012F809801CF809E0D84413F809B0DDF848900AEB4B0B10F819A012F80A90B0
:204BA000D94413F80AB00EEB4B0E1CF80AB0DDF84CA0CDF81CB010F80AA012F80A2013F8B0
:204BC0000A301CF80AC0DDF82CA07244CAEBCA0A0AEB4A0EDDF858A00BEB4303CAEBCA0AFE
:204BE0000EEB8A0AC6EB061BDA4407EB870B0AEB4B0BDDF860A00AEB4A0ACDF85CA00BEB94
:204C00004A0A08EB480BDA440AEB090BDDF820A0C9EBC909D344DDF858A009EB49090AEB99
:204C2000CA0A4FEA8A0A0AEB4E0AC6EBC60E0EEB061E0AEB4E0A07EB470E0AEB0E1EDDF85A
:204C40005CA006EB46060EEB0A1AC8EBC80E0EEB081E0AEB4E0A0AEB490A02EBC20E0AEB0F
:204C60008E0EDDF818A007EB4707F244CDF820A0DDF82CA07F005644DDF860A0C2EBC20210
:204C80000AEB8A0A07EB4A073E44C8EB08173E444E4406EB82020692109EABF5003266B13C
:204CA000099EB718059E0592BF1B109E7E43F71706EB1766361209963246029E56B1019FD9
:204CC0000C9E7743029E06FB0272D61702EB1662121201921D9E7243002ACCBF0832083AB1
:204CE000D61702EB1672854E1211B242B8BF324605DB47F6BC769642B8BF47F6BC721E9EB4
:204D000000EBC400F68906FB05F71C9E6D1C26F817200A8CAA423FF7F0AE00BFC1E900C34E
:204D2000069888600898C8600998086105984861019888611FB090B2BDE8F08F2DE9FF4FBA
:204D40006F49704A9DB00968914200D0FEE720990024103100910969059100994969089100
:204D600000998969049100990B684A68896806910099C96809912099B1F80CC00099898B8E
:204D800003910099C98B0F910099098C002940F36C81CCEBCC0118910CEBCC011791039946
:204DA000C1F580710B910CEB8C0116910CEB4C011191057850494E5D06EB020A01F58072F9
:204DC000CDF870A0565D03EB460701F5007310F80C6013F805808D5D3D44975D08EB470802
:204DE0009F5D10F81C6011F8069009EB080ACDF830A012F8068007EB480913F80680119EE6
:204E0000875DCE5D4E4412F8079008EB490813F8079010F82C7011F807A0C244CDF848A063
:204E200012F8078009EB480A13F80790169F10F8078011F8087013F808B0574412F808A024
:204E4000DDF8448009EB4A0910F8188011F808A0CA44CDF850A012F8089013F808A0DDF834
:204E600060800BEB490B10F8089011F8098013F809E0D84412F809B00AEB4B0B10F83CA0D4
:204E800011F80A90D94412F80AB00EEB4B0E13F80AB0DDF85CA0CDF808B010F80AA011F86E
:204EA0000A1012F80A2013F80A30DDF870A071440BEB4202CAEB0A1A0AEB4A0A05EBC50BA9
:204EC0000AEB8B0BDDF830A0CAEBCA0A0BEB8A0AC6EBC60B0BEB4B0BD344DDF848A0CAEB38
:204EE0000A1AD34407EB870A0BEB4A0BDDF850A00AEB4A0A08E00000080800204480FFFFC1
:204F000004080020CDB5E8B50BEB4A0A08EB480BDA44DDF824B0CA44DA44CDF804A0DDF885
:204F200070A00AEBCA0BCBEB8A1AC5EB851BD344DDF830A00AEB8A0E0EEB8A1ADA4406EBF8
:204F4000C60B0BEB861BD344DDF848A006EB4606CAEB0A1A0AEB8A0ADA44C7EB071B0BEB8E
:204F60008B0BD344DDF850A076000AEBCA0E0EEB8A1ADA4408EB880B0BEB881BDA44C9EBD0
:204F8000891BDA4401EBC10BCBEB811BD344DDF818A0C1EB0111DA44CDF824A0DDF830A097
:204FA00001EB41010AEB4A0A5544DDF848A00AEB8A0A06EB4A063544C7EB0716DDF850A04D
:204FC0003544CAEBCA0606EB46063544C8EBC80605EB860509EBC90605EB860529440691DF
:204FE000DDF804A00F9DAAF57A3165B1059D6E18089D0891761B0F9D7543EE1705EB166561
:205000002D1205952946039D55B1049E0B9D6E43039D05FB0161CD1701EB156109120491AF
:205020001F9D69430029CCBF10311039CD1701EBD561FF4D4911A942B8BF294605DB47F630
:20504000BC758D42B8BF47F6BC71209DED8905FB04F61E9D641C25F81610169900EB4100E9
:205060000099098CA1423FF7A4AE009803600098426000990698886000990998C860009948
:20508000059808610099089848610099049888610098008C21B0BDE8F08F2DE9FF4FE5495F
:2050A000E54AA5B00968914200D0FEE728990024103100910969019100994969099100993A
:2050C0008969039100990B684A6889680A910099C96807912899B1F80CC00099898B059125
:2050E0000099C98B14910099098C002940F355820CEBCC0110910CEB4C0101EBCC012291A8
:205100000CEB8C0101EBCC012191CCEB0C111D910599C1F580710D91CCEBCC0119910CEB16
:205120008C0113910CEB4C010F910578C3494E5D06EB020A01F58072CDF890A0565D03EBAB
:20514000460801F5007310F80C605F5D8D5D454412F8068007EB480713F8068010F81C600F
:2051600011F8069009EB070ACDF830A0975D08EB47089F5D0F9E865D11F8069009EB080A8F
:20518000CDF844A012F8068007EB480713F8068010F82C6011F8069009EB070ACDF848A01F
:2051A000975D08EB470713F80680139E865D11F8069009EB070ACDF854A0975D08EB470703
:2051C00013F806800F9E10F8166011F8069009EB070ACDF858A0975D08EB470913F80680EA
:2051E000199E875DCE5D4E4412F8079008EB490813F8079010F83C7011F807A0C244CDF8A1
:2052000060A012F8078009EB480A13F80790109F10F8078011F8087013F808B0574412F8EE
:2052200008A009EB4A09DDF84C8010F8188011F808A0CA44CDF870A012F808900BEB4909C0
:2052400013F808B0DDF8888010F8088011F808A0CA44CDF86CA012F808900BEB490913F899
:2052600008B0DDF83C8010F8288011F808A0CA44CDF878A012F808900BEB490B13F808900A
:20528000DDF8848010F808A011F80A80D84412F80AB009EB4B0913F80AB0DDF864A010F824
:2052A0001AA011F80AE0F14412F80AE00BEB4E0B13F80AE0DDF874A010F80AA011F80A1016
:2052C00012F80A2013F80A305944C5EB051ACAEBCA0BDDF890A00EEB4202CAEB0A1A0BEB4E
:2052E000CA0BDDF830A04FF05B0E1AFB0EFAD344DDF844A0CAEBCA0E0EEB4A1A0BEB4A0B6A
:20530000DDF848A00AEB4A1A0BEB4A0BDDF854A00AEBCA0ECEEB8A1AD344DDF858A0CAEBA0
:205320000A1A0AEB4A0ADA4406EBC60B0AEB8B0BDDF860A0CAEBCA0A0BEB8A0AC7EBC70B29
:205340000BEB4B0BD344DDF870A0CAEB0A1AD344DDF86CA00AEB8A0A0BEB4A0BDDF878A073
:205360000AEB4A0A0BEB4A0A08EB480BDA440AEB090BDDF81CA0DA44CDF808A0DDF890A00C
:205380000AEB0A1A4FEACA0BC5EB051A0AEB8A0A0BEB4A0BDDF830A00AEB0A1E0EEB8A1AE4
:2053A0000BEB4A0BDDF844A04FF02B0E1AFB0EFA0BEB8A0BDDF848A0CAEB0A1A0AEB4A0AEA
:2053C0000BEB8A0BDDF854A0CAEB4A1A0AEB4A0A0BEB4A0BDDF858A0CAEB4A1E0EEB8A1A45
:2053E0000BEB4A0A06EB460B0AEB8B1BDDF860A04FF02B0E0AEB4A0A0BEB8A1AC7EB471B42
:205400000BEB871B0AEB4B0BDDF870A0CAEB4A1A0AEB4A0A0BEB4A0BDDF86CA0CAEB0A1A5D
:205420000AEB4A0A0BEB8A0BDDF878A008E000004480FFFF04080020CDB5E8B50808002086
:205440001AFB0EFA0BEB8A0A08EB081B0BEB881B0AEB4B0AC9EB091B0BEB8B0B0AEB4B0AFE
:2054600001EB011B0AEBCB0BDDF828A0C6EBC606DA44CDF81CA0DDF830A00AEB4A0A05EBC2
:205480000A0BDDF844A00AEB4A05DDF848A06D000AEB8A0A05EB4A05DDF854A0AB44CAEB9B
:2054A0000A15DDF858A05D44CAEBCA0A0AEB4A0A5544DDF860A005EB86060AEBCA0506EBEE
:2054C0008505C7EB071606EB4606DDF870A035440AEBCA06C6EB8A16DDF86CA035440AEB73
:2054E0004A16DDF878A005EB4605CAEBCA0606EB4A1605EB46055B2618FB06F63544C9EB56
:205500000916C6EBC6063544C1EB011105EBC1010A91DDF808A0149DAAF5801165B1019D59
:205520006E18099D0991761B149D7543EE1705EB16652D1201952946059D55B1039E0D9D04
:205540006E43059D05FB0161CD1701EB156109120391279D69430029CCBF40314039CD17AF
:2055600001EB5561FE4DC911A942B8BF294605DB47F6BC758D42B8BF47F6BC71289D00EBE5
:205580000C10ED8905FB04F6269D641C25F816100099098CA1423FF7C8AD009803600098AA
:2055A000426000990A98886000990798C860DDE9000101610099099848610099039888619D
:2055C0000098008C29B0BDE8F08F2DE9FF4FE549E54AA5B00968914200D0FEE728990024B6
:2055E000103100910969019100994969099100998969039100990B684A6889680A910099EE
:20560000C96807912899B1F80CC00099898B05910099C98B14910099098C002940F3558255
:205620000CEBCC0110910CEB4C0101EBCC0122910CEB8C0101EBCC012191CCEB0C111D91E4
:205640000599C1F580710D91CCEBCC0119910CEB8C0113910CEB4C010F910578C3494E5DF9
:2056600006EB020AA1F58072CDF890A0565D03EB4608A1F5007310F80C605F5D8D5D454415
:2056800012F8068007EB480713F8068010F81C6011F8069009EB070ACDF830A0975D08EB04
:2056A00047089F5D0F9E865D11F8069009EB080ACDF844A012F8068007EB480713F806805F
:2056C00010F82C6011F8069009EB070ACDF848A0975D08EB470713F80680139E865D11F882
:2056E000069009EB070ACDF854A0975D08EB470713F806800F9E10F8166011F8069009EBD2
:20570000070ACDF858A0975D08EB470913F80680199E875DCE5D4E4412F8079008EB4908B6
:2057200013F8079010F83C7011F807A0C244CDF860A012F8078009EB480A13F80790109F70
:2057400010F8078011F8087013F808B0574412F808A009EB4A09DDF84C8010F8188011F898
:2057600008A0CA44CDF870A012F808900BEB490913F808B0DDF8888010F8088011F808A0D3
:20578000CA44CDF86CA012F808900BEB490913F808B0DDF83C8010F8288011F808A0CA447D
:2057A000CDF878A012F808900BEB490B13F80890DDF8848010F808A011F80A80D84412F83B
:2057C0000AB009EB4B0913F80AB0DDF864A010F81AA011F80AE0F14412F80AE00BEB4E0BFC
:2057E00013F80AE0DDF874A010F80AA011F80A1012F80A2013F80A305944C5EB051ACAEB5C
:20580000CA0BDDF890A00EEB4202CAEB0A1A0BEBCA0BDDF830A04FF05B0E1AFB0EFAD3444C
:20582000DDF844A0CAEBCA0E0EEB4A1A0BEB4A0BDDF848A00AEB4A1A0BEB4A0BDDF854A050
:205840000AEBCA0ECEEB8A1AD344DDF858A0CAEB0A1A0AEB4A0ADA4406EBC60B0AEB8B0BAD
:20586000DDF860A0CAEBCA0A0BEB8A0AC7EBC70B0BEB4B0BD344DDF870A0CAEB0A1AD34484
:20588000DDF86CA00AEB8A0A0BEB4A0BDDF878A00AEB4A0A0BEB4A0A08EB480BDA440AEB7A
:2058A000090BDDF81CA0DA44CDF808A0DDF890A00AEB0A1A4FEACA0BC5EB051A0AEB8A0A34
:2058C0000BEB4A0BDDF830A00AEB0A1E0EEB8A1A0BEB4A0BDDF844A04FF02B0E1AFB0EFA85
:2058E0000BEB8A0BDDF848A0CAEB0A1A0AEB4A0A0BEB8A0BDDF854A0CAEB4A1A0AEB4A0A88
:205900000BEB4A0BDDF858A0CAEB4A1E0EEB8A1A0BEB4A0A06EB460B0AEB8B1BDDF860A0B9
:205920004FF02B0E0AEB4A0A0BEB8A1AC7EB471B0BEB871B0AEB4B0BDDF870A0CAEB4A1A17
:205940000AEB4A0A0BEB4A0BDDF86CA0CAEB0A1A0AEB4A0A0BEB8A0BDDF878A008E0000050
:205960004480FFFF04080020CDB5E8B5080A00201AFB0EFA0BEB8A0A08EB081B0BEB881B92
:205980000AEB4B0AC9EB091B0BEB8B0B0AEB4B0A01EB011B0AEBCB0BDDF828A0C6EBC60622
:2059A000DA44CDF81CA0DDF830A00AEB4A0A05EB0A0BDDF844A00AEB4A05DDF848A06D002E
:2059C0000AEB8A0A05EB4A05DDF854A0AB44CAEB0A15DDF858A05D44CAEBCA0A0AEB4A0A33
:2059E0005544DDF860A005EB86060AEBCA0506EB8505C7EB071606EB4606DDF870A0354414
:205A00000AEBCA06C6EB8A16DDF86CA035440AEB4A16DDF878A005EB4605CAEBCA0606EB23
:205A20004A1605EB46055B2618FB06F63544C9EB0916C6EBC6063544C1EB011105EBC10189
:205A40000A91DDF808A0149DAAF5801165B1019D6E18099D0991761B149D7543EE1705EBE4
:205A600016652D1201952946059D55B1039E0D9D6E43059D05FB0161CD1701EB156109125E
:205A80000391279D69430029CCBF40314039CD1701EB5561194DC911A942B8BF294605DBED
:205AA00047F6BC758D42B8BF47F6BC71289D00EB0C10ED8905FB04F6269D641C25F8161006
:205AC0000099098CA1423FF7C8AD009803600098426000990A98886000990798C860DDE98C
:205AE000000101610099099848610099039888610098008C29B0BDE8F08F00004480FFFF60
:205B00002DE9F00F13EE906ADDE90EC0DDE90C12DDE90A93DDE90854FE4FBE426CDD16EEDE
:205B2000106AB6F1804F1CDC14EE906AFA4FB7420ADBB5EEC06AF1EE10FA5DD917EE906A6F
:205B4000F64FBE4258DC0CE014EE906AF44FBE4207DD13EE906AF34FB742A4BFF24EB442EE
:205B60004ADC12EE90AADFF8C4B3F14EF14FDFF8C883D34565DB11EE109ADFF8C0A3D14585
:205B80004ADCEF4860453BDB15EE100AED4988420BDCED48844580F0668117EE900AEB49C1
:205BA000884240F3608100F090B9E9488342DCBF11EE900AE74900F3568111EE101AE64A51
:205BC00006208A42C0F2248414EE901AE34A8A42BCBFBDE8F00F704715EE101AE04A8A42DB
:205BE000BCBFBDE8F00F704712EE901ADD4A8A42BCBFBDE8F00F70470120BDE8F00F7047E0
:205C0000D948884280F22F81D8489042A4BFD8488842D2DA00F027B911EE901AD54A914221
:205C200040F3218113EE101AD34A9142C5DDD3498842C2D311EE100AD1498842BDDD00F0D0
:205C400044B914EE90AADFF83CB3D3456FDB17EE10AADFF834B3DA45AFDD11EE10AADFF82B
:205C60002CB3DA4537DC13EE109ADFF824A3CA450DDB10EE100AC749884200F32681C64839
:205C800084456FD3C548824240F31F8195E7DFF810C38C4513DB13EE101AC24A8A426EDB24
:205CA000C14988426BD310EE900AC049814266DABF488542DCBFBF48984260DAD3E0BE48F1
:205CC00090425CDA10EE900ABC498142BCBF13EE100ABB49C7E011EE10AADFF8E8B2DA45D2
:205CE00041DCB949914208DB10EE100AB749884245DCB748484535DA5FE710EE901ADFF86C
:205D0000D4C28C4514DB14EE900AB349884205DC16EE900AB149814224DA4EE7B04883429F
:205D20002DDD10EE100AAF49884228DD45E72EE0AD49814216DA11EE100AAC498142FFF6D1
:205D40003CAF11EE100AAA4988420BDD10EE100AA849884206DDA8488542DCBFA7488242DF
:205D60007FF72BAF7FE0A64A904209D3A548814205DD10EE900AA449884200DD73E05DE088
:205D8000A24883426FDCA24884456CD215E711EE109A4E4519DB13EE100A9E49884203DC41
:205DA0009D4890425FDA90E012EE100AB84245DC11EE100A404556DC13EE100A97498142C0
:205DC00051DA9748984239DA4DE013EE109ADFF854A2CA4517DB12EE901A934A91420BDCE5
:205DE00010EE900A914981423DDB17EE900A904988427FF7E2AE68E08E49884233D38E4849
:205E0000834230DC61E016EE903ADFF83092994515DB10EE902A8A4B934256DA11EE102A70
:205E2000884B9A42DCBF884A8A421CDA15EE101A864A8A4217DB8649884214D245E0854B55
:205E4000834209DB84488445C4BF844882423CDD8348814207DD38E0824A8242A4BF11EE5C
:205E6000100A81492BDB11EE101A804A0520914200F3B68210EE101A7D4A8A4210EE901ABF
:205E8000C0F28B827B4A914200F3768210EE101A794A8A42A4BFBDE8F00F704714EE101A1F
:205EA000764A8A42BCBFBDE8F00F704711EE901A734A9142DCBFBDE8F00F7047ADE171480A
:205EC0008842BCBF70488842CDDB17EE101A6F4A6F48914219DC14EE901A6E4A8A4215DBCC
:205EE00011EE101A6C4A914211DC13EE101A6B4A91420DDC10EE101A694A914208DC16EED1
:205F0000901A684A9142AEDCCEE055E1DAE0D2E051E100000723423F2CB7B43BFEB4213EB8
:205F2000DC2A583EA2118D41A131273F5167614096418D3E67546B413CFA2F3E9F3D8F3E5E
:205F40003E5A8C3F565C3E426DFE5BBFE6AF903D4CA4BC3EA27D803FD36A703F98F8233B23
:205F60009B293E42280A343E87524B3E9E97CA3DD4B7083FC30F6E3F0F485841D9066EBB52
:205F8000DBC05D3F973C1C40833227402C7D683E1058FA405AD41B3FA2EE7BBF64ADA13C4E
:205FA0008045FE3E73D754412861CEBE79AE0B3FE92B1541DC7E793CF06BA43DAE2E4F3F5C
:205FC00056DCA24231946F3FBA32A83CBFF31B3FBF7EA83DF06EE53DC05B143FA4A77C3F46
:205FE000A9BE433EA1BD0E3F3F8F093FBEDB203F122ECC3E395ED13E605A1341BF63683E3A
:020000040800F2
:206000006F1203BA268CC63DC03FC53E1FD9DC3EA0A7B1BEF0C1764005DC9B3EC20A724123
:2060200086ADE93EBD42E541CFF0E641A436313FF626863DEE273BBF5930D13DBB9C763F20
:206040003C85EC3E49F6F83E5D4F943DCD49C34234BC83BF7A1C863C70CD973F1058493EBC
:20606000FE277F3E92961A3F3ACFA83E1572713FD4472C3F3CDD793F44A31B3F0D53444219
:206080008C30713FD8465C3E20D4E53E16C86644000088418DD31B4054901F3EC0D43A4169
:2060A0002F52483F946C793F15EE101AF84A91423FF7D9AE8AE010EE101AF64A91427FF706
:2060C000D2AE83E012EE101AF34A8A426ADB11EE101AB1420FDC12EE101A8F4276DB11EE13
:2060E000101A8845FFF6BFAE13EE101AEB4A91427FF7B9AE6AE015EE901A81421EDC10EE85
:20610000901AE74A8A4261DA10EE101AE54A8A425CDB17EE901AE44A91427FF7A4AE11EECC
:20612000101AE24A914203DCE149A1424EDA9AE616EE901ADF4A914248DD94E612EE901AAF
:20614000DD4A914219DC15EE901ADC4A8A423DDA17EE901ADA4A8A4210EE901A09DBD94A4C
:206160009142C4BFD8498C4230DDBDE8F00F04207047D64A8A4229DAF7E712EE101AD44A39
:2061800091427FF770AE11EE101AD24A914203DCD149A1421ADA66E610EE901ACF4A9142D0
:2061A00014DD60E617EE901ACD4A8A42A4BF15EE900ACC49D9DA09E017EE101ACA4A91424F
:2061C000D3DC10EE101AC94A9142CEDC17EE101AC74BC84A8B426EDB12EE101AC64B9942D9
:2061E0006ADC16EE901AC54B8B4266DB14EE901AC34B994215DC16EE101A88420DDA14EE26
:20620000900AC049814208DA10EE100ABE498142BCBF15EE900ABD4925DBBDE8F00F022070
:20622000704717EE900ABA49884239DC10EE100AB8498142F1DB15EE900A90421DDC11EE17
:20624000100AB549814212DB10EE100AB3498842E3DD14EE900AB2498842DEDC17EE900A1E
:20626000B0498142D9DABDE8F00F0320704710EE900AAD498142F6DACFE714EE900AAB49CA
:206280008842F0DC11EE100AA9498842EBDCA9488442C2DC13EE100AA7498142E3DBBCE748
:2062A00011EE100AA5498842B7DD12EE900AA4498842D8DDB1E73FE023E010EE900AA14937
:2062C000814213DB15EE900A9F498842C4BF16EE100A9E49C7DC10EE900A9D4988429CDCD3
:2062E00012EE100A9B498142BDDB96E712EE900A99498142B7DA13EE900A98498142B2DB2C
:206300008BE714EE100A9649884286DD13EE900A944988420ADC13EE100A93498142A2DA85
:2063200010EE900A914981429DDA76E712EE900A8F49884297DC70E715EE900A82420BDB07
:2063400010EE900A8B498142FFF667AF12EE900A8949884287DC60E78848A84283DA10EE0E
:20636000900A87498142FFF658AF12EE900A854988423FF778AF50E717EE901A824A9142E0
:20638000DCBFBDE8F00F704716EE901A7F4A91427FF743AFBDE8F00F70477D4A8A42A4BF04
:2063A000BDE8F00F704711EE101A7A4A8A420EDB17EE901A784A91427FF72FAF11EE901A9F
:2063C000764A91427FF729AFBDE8F00F704711EE901A734A8A42BFF620AFBDE8F00F704770
:2063E00016EE101A6F4A91423FF717AF16EE901A6D4A9142C4BFBDE8F00F704710EE101AA9
:206400006A4A9142C4BFBDE8F00F704705E700BF11EE901A664A8A42BCBFBDE8F00F704771
:2064200010EE101A634A91422FDC12EE901A624A8A4215DB16EE101AB1F1804F7FF7DCABFB
:2064400010EE901A5D4A91427FF7D6AB11EE101A5B4A9142DCBFBDE8F00F7047FFF7CCBB0F
:2064600010EE901A574A8A4210DB15EE101A564A91427FF7C1AB11EE101A544A9142DCBF65
:20648000BDE8F00F7047FFF7B7BBB2E0A0E00000869E36427E1C713FFA23CC43DD05724180
:2064A000295F903E473A2F3FE23D8F3E9B74FB3E274EBD402BDC423F4249F3420000D84190
:2064C000DFC56B3ED8BB873E734B6B4036E9563E3B1B004267F2D53EFC60E340C6DE133F82
:2064E000C66C013F0000A841350B7F44EB8E193F40E0ED430000B041FE05D5430CB29F3F75
:20650000A4FDC1413964A141C765303F0000A04198A2B43EAD896D3FDA1CC73E5C043A3FFB
:206520004A341A42B8C9283E89D2423FA30DF441E468963E94A14E4043525B4205145A3E13
:206540002D938D433ACF703F0000B84100002041EA42DC3E379C384319ABE14228F0B04412
:20656000CA4E92435CE74C459A2FA0437385373EF38F5B437D91603ED7C92E43F4E15643F6
:20658000C6DD883E3257304361A8033E6A13833F52D1C03EE5278D3E0F5E2B3E5C3C8A3FDE
:2065A000DE8E7C3F000010412079833F07D3203E5F95873FF487163EB457233F2926B73E96
:2065C000E657733F2C2E8E3EA4444042FAB87E3F11EE901AFE4A8A42A4BFBDE8F00F704752
:2065E00010EE101AFB4A8A42BFF606ABBDE8F00F704711EE901AF84A91427FF7FDAABDE821
:20660000F00F70472DE9F04FF44C2DED108BADB004F1F00504F5827604F58C722078DFEDE7
:20662000F08A88BB0023E3702371A3706371B7EE002A85ED002A85ED012A85ED022A85ED94
:20664000032A85ED042A86ED002A86ED012A86ED022A86ED032A86ED042A82ED002A82ED4A
:20666000012A82ED022A82ED032A82ED042ADD48A3711021F0EE681AC0ED011AC0ED021AC0
:206680000830491EF8D1236101202070DFEDD62AE078D649C0EE221A401CA1FB00314909B5
:2066A000A1EB810100EB011000F0FF0880EEA22A84F80380A07881EE220A20B1207900F093
:2066C0000F00401C2071CA4861EEA10A00EB8800B8F12F0FC0ED001AC64842EE020A00EB5C
:2066E000880080ED002AC44800EB880040EE000A80ED000AC14800EB8800C0ED000A04BF57
:206700000120A070A779BF4905EB8700B0EE688AC0ED000ABA4806EB870A00EB8709781DCE
:20672000A1FB00218908494201EB8101084400F0FF0BB54890ED000B51EC100B0BF008FEEE
:2067400000EE100A05EB8B00B0EE489AD0ED009AAE4800EE299A90ED000B51EC100B0BF05D
:20676000F7FD00EE100AA749381DA1FB00218908494201EB8101084400F0FF0BA24800EE73
:20678000298A90ED020B51EC100B0BF0E1FD00EE100A05EB8B00D0ED009A9C4800EE299A1C
:2067A0008AED009A90ED020B51EC100B0BF0D0FD00EE100A964800EE298A89ED008A90ED1A
:2067C000020B51EC100B0BF0C3FD00EE100A06EB8B00D0ED000A8F4800EE609A90ED020B05
:2067E00051EC100B0BF0B4FD00EE100A8448854900EB8B00D0ED000AF81CA1FB0021890854
:20680000494201EB8101084400F0FF0B7E4800EE608A90ED040B51EC100B0BF099FD00EE38
:20682000100A05EB8B00D0ED009A784800EE299A8AED009A90ED040B51EC100B0BF088FD86
:2068400000EE100A724800EE298A89ED008A90ED040B51EC100B0BF07BFD00EE100A06EB85
:206860008B00D0ED000A6B4800EE609A90ED040B51EC100B0BF06CFD00EE100A6048614989
:2068800000EB8B00D0ED000AB81CA1FB00218908494201EB8101084400F0FF0B5A4800EECA
:2068A000608A90ED060B51EC100B0BF051FD00EE100A05EB8B0090ED00AA544800EE0A9AE7
:2068C0008AED009A90ED060B51EC100B0BF040FD00EE100A4E4800EE0A8A89ED008A90EDEC
:2068E000060B51EC100B0BF033FD00EE100A06EB8B00F0EE499AD0ED000A464840EE609A42
:2069000090ED060B51EC100B0BF022FD00EE100A3B483C4900EB8B00D0ED000A781CA1FBFA
:2069200000218908494201EB810101EB000B364800EE608A0BF0FF0790ED080B51EC100B76
:206940000BF006FD00EE100A05EB870090ED009A2E4840EE099ACAED009A90ED080B51EC3E
:20696000100B0BF0F5FC00EE100A294800EE098A89ED008A90ED080B51EC100B0BF0E8FC4F
:2069800000EE100A06EB8700D0ED000A214840EE609ACAED009A90ED080B51EC100B0BF0EB
:2069A000D7FC00EE100A164800EB8700D0ED000A00EE608A89ED008A94ED0C0B51EC100B9D
:2069C0000BF0C6FC00EE100A134F20EE290A25E0D9CF863FD845D13CE4BD7E3F080B002022
:2069E00000000000B4540020CDCC1CC1ABAAAAAA38500020F8500020B8510020785200202D
:206A0000200C0020CDCCCCCC580B0020A80B0020800B0020D00B00203853002007EB8800D8
:206A200080ED000A94ED100B51EC100B0BF090FC00EE100A07F1C00000EB880020EE080A11
:206A400080ED000A84F806B02079102840F02483A078002800F02083B0EE680AA7F54075B1
:206A600005F5C07303F1C00202F1C001B0EE401AF0EE401AF0EE40BAB0EE40CAF0EE40CAE7
:206A8000B0EE40BAF0EE40AAB0EE40AAF0EE409AB0EE409AB0EE408AF2EE04FAF0EE40EA90
:206AA000B0EE40EAB0EE40DAF0EE40DA05F1C00C01F1C0005FF0300695ED003ADCED002AB6
:206AC00093ED002AD2ED000A03EE03BA42EEA2AA02EE02AA40EEA08A33EE011A32EE800A3F
:206AE00072EE211A70EEABBAF4EEC80AF1EE10FA00F3D882F4EEEF0AF1EE10FAC0F0D68282
:206B0000B1EC012A121DF0EC010A1B1D2D1D42EE02EA32EE0DDA00EEA0EA70EEADDA761E01
:206B20000CF1040CC8D19FEDFEFAC1EE0F0ACDED120AC0EE0F0ACDED110AC1EE8F0ACDEDEF
:206B4000100ADDED120A20EEA00A8DED0E0ADDED100A00EEA00AF1EEC00AF4EE600AF1EE9B
:206B600010FA03D022F0B1FDF0EE400A9DED110A80EE201A11EE100A0BF0A7FB41EC100B05
:206B800021F052F851EC100B0BF0E2FB00EE100A8DED230A9DED120AF0EEC00ACDED1F0A8A
:206BA0009DED101A80EE810A10EE100A0BF08DFB41EC100B21F038F851EC100B0BF0C8FBEE
:206BC00000EE100AD74E8DED220A8BEE8F0A0DF128080DF160098DED0F0A21699DED120A78
:206BE00006EB810080ED000A9DED110A80ED080A9DED100A80ED100A9DED0F0A80ED180A2B
:206C0000481CC11700EB517121F00701401A0025C4F8100006EB451AAAF1040000234FF0D6
:206C2000040C08EB850209EB8501DAED000A23E013B392ED001A90ED010AB4EEC01AF1EE3A
:206C400010FAC8BFB0EE410A82ED000A91ED001A90ED010AB4EEC01AF1EE10FAD8BFB0EE87
:206C6000410A81ED000AB3F1FF3F04BFC2ED000AC1ED000A1ED003E0C2ED000AC1ED000AF9
:206C800092ED001A90ED020AB4EEC01AF1EE10FAC8BFB0EE410A82ED000A91ED000A90ED7F
:206CA000021AB4EEC10AF1EE10FAC8BFB0EE410A81ED000A08309B1CACF1010C1CF0FF0CCA
:206CC000B6D1681CC5B2042DA4D39DED0A0ADDED180A1FEE900A30EE600A8DED240A9DED9F
:206CE0000B0ADDED190A30EE600A8DED250A9DED0C0ADDED1A0A30EE600A8DED270A9DED16
:206D00000D0ADDED1B0A30EE600A8DED280A0BF0DCFA41EC100B22F09BFC8DED1C0B18EED0
:206D2000100A0BF0D2FA41EC100B22F091FCB0EE401AF0EE601A9DED1C0B51EC110B53ECF2
:206D4000102B0BF085F90BF003FB9DED0E0ADDED110A8DEE0F8A00EEA00ADDED100A8246A7
:206D600000EEA00A10EE100ACDEE8FBA0BF0ADFA41EC100B22F06CFC51EC100B0BF0E8FAC6
:206D800000EE100ADDED120A8AEE8F1A002607F104083546644F4FF02F09C0EE80FADDED23
:206DA000110AC0EE80DADDED100A80EE80DA9DED1F0A8DED120A9DED110AF0EEC00ACDEDB4
:206DC000110A9DED100AF0EEC00ACDED100ACBEE0F0A9DED120A40EE400A94ED030A60EEAC
:206DE000800ACDED0E0ADDED110A00EEE01ADDED100A21EE00BA8AEE0F1A00EEE01ADDED6A
:206E00000F0A61EE00AA88EE8F1A00EEE01A21EE00AA94ED120B51EC100B0BF099FA94ED9B
:206E20000E0B834651EC100B0BF092FA4FEA0001D8ED000A00EE101A18ED011A70EEC80A20
:206E400031EE481A70EEC01A00EE101A31EE400A21EE800AB5EEC00AF1EE10FA3CBF701C82
:206E6000C6B200EE101A70EE200A00EE101A30EE010A20EE800AB5EEC00AF1EE10FA3CBFD0
:206E8000701CC6B200EE90BA97ED000A01EE10BA30EE6B0A70EE601A57ED010A70EEEB0A62
:206EA00030EEC11A21EE811AB5EEC01AF1EE10FA3CBF681CC5B201EE10BA31EE001A00EEF3
:206EC00010BA30EE200A21EE000AB5EEC00AF1EE10FA3CBF681CC5B23F1D08F10408B9F130
:206EE0000109A5D1DFF844904FF0300B09F1C00808F1C00799ED000A98ED001AD7ED000A6E
:206F00002FEE808A20EE000A0DEE818A01EE010A0DEE208A00EEA00A08EE480A08E00000C5
:206F200000004042B8540020FC53002038500020B0EEC00A10EE100A0BF0C7F941EC100B09
:206F400022F086FB51EC100B0BF002FA00EE100AF0EEC80A48EE089A00EE009A30EE8CCAC3
:206F60007CEE80CA3F1D08F1040809F10409BBF1010BBFD1CCEE0F6A94ED030A2746B0EEE1
:206F80004E5AF0EE6E4AB0EE684AF0EE4A3AB0EE6A3AF0EE4B2AC9EE8F0ACCEE8F7A46EE25
:206FA000E60A20EE807AC9EE0F0A47EEE70A20EE800ADDED220ACDED070ADDED230ACDEDD9
:206FC000060ADDED280ACDED050ADDED270ACDED040ADDED250ACDED030ADDED240ACDEDA7
:206FE000020ACDF804A08DED000A00EE105A9DED0E2ADDED0F1AB8EE406A00EE106A9DED49
:20700000101ADDED110AF8EE405A9DED120AFEF777FD1AEE101A7871B1F1814F17DA9DEDCA
:20702000120AF94A10EE101A914210DA9DED110AF64A10EE101A914209DA9DED100AF44A67
:2070400010EE101A8A42BCBF0120787120DB052818BF06281CD19DED230AEE4910EE100A97
:2070600088423CBFB5EEC00AF1EE10FA10D29DED220AE94910EE100A88423CBFB5EEC00AE1
:20708000F1EE10FA04D2BAF17C5FC4BF02217971787900F019F9787160792DB0BDEC108B45
:2070A000BDE8F08FB0EE608A24E500BFF0EE60FA26E5DA48016821F001010160D8480122D7
:2070C000826081680029FCD1D64901600068D649884202BFD54842707047FEE770B5064681
:2070E000D2484078002808BF70BDD14C204620F021FB3078A0F14201182938BF203060F39C
:2071000007057078A0F14201182938BF203060F30F25B078A0F14201182938BF203060F3C1
:2071200017450120EAB2811E732A08BFE17013D00BDC642A08BFA1710ED0652A08BF2070ED
:207140000AD06E2A08BFE07006E0752A08BFA07102D0772A08BF2170C5F30722732A08BF39
:20716000217113D00BDC642A08BFE1710ED0652A08BF60700AD06E2A08BF207106E0752AB9
:2071800008BFE07102D0772A08BF6170C5F30742732A04BF617170BD0BDC642A04BF2172A1
:2071A00070BD652A04BFA07070BD6E2A08BF607170BD752A04BF207270BD772A08BFA1701C
:2071C00070BD10B50C4699494978002908BF10BDD0ED000A9FED970A20EE801AD0ED010AA7
:2071E00020EE802AD0ED020A914860EE801A90F9001000EE101A90F90110B8EEC00A00EEA4
:20720000901A90F9021020EE010AF8EEE00A00EE820A00EE901A90F90310F8EEE00A00EED4
:20722000A10A00EE901A90F90410F8EEE00A02EE901A90F9051060EE810AF8EEE22A42EE6B
:20724000820A02EE901A90F90610F8EEE22A42EEA10A02EE901A90F9071090F90800F8EEEB
:20726000E22A22EE811A02EE901AF8EEE22A02EE821A02EE100AB8EEC22A02EE211AFFF782
:20728000C1F9207010BD6948417800291CBF00210170704765494978002904BF00207047EE
:2072A0002DE9F04164498AB091E8FC118DE8FC11096A089169460AF005FE68460AF0FBFD40
:2072C0000AB0C0B2BDE8F081F0B4DFF860C19CF81410490001F00202CCF814209CF8181026
:2072E000490001F07E03CCF818309CF81C10490001F07E01CCF81C109CF82040640004F012
:207300007E04CCF82040012819D0DCF824506D0025F0010525F04045CCF82450DCF82860B7
:20732000760026F0010626F04046CCF8286007281CD2DFE800F01B04080C10141800501C23
:20734000CCF8140012E0581CCCF818000EE0481CCCF81C000AE0601CCCF8200006E0681C2D
:20736000CCF8240002E0701CCCF828000220DCF81410002211F0010F1CBF521CD2B2490860
:20738000401EF7D105260024022A17D09CF80A20DCF81810151E4FF0030709D011F0010F45
:2073A0001CBF401CC0B24908521EF7D1A84212D19CF808008CF80700022056E09CF80800B3
:2073C00001218CF807008CF8081002281CBF032804287CD184E0DCF81C3029004FF00000CF
:2073E0000AD000BF13F0010F1CBF401CC0B25B08491EF7D1A84221D19CF808008CF80700A3
:207400008CF8087092E00000CDCC4C3E3333B33E1F856B3FA60A06BFA60A86BE002000E0CD
:2074200000300240C2A507F4CDB5E8B5080B002038550020C3F51C41504903080021DCF8CB
:207440002030002D18BF28460AD000BF13F0010F1CBF491CC9B25B08401EF7D1A94207D1B7
:207460009CF808008CF8070004208CF808005DE01E20DCF82410002211F0010F1CBF521C36
:20748000D2B24908401EF7D1172A06D99CF808008CF807008CF8086015E01E20DCF828107F
:2074A000002200BF11F0010F1CBF521CD2B24908401EF7D1172A46D99CF808008CF807000F
:2074C00006208CF808009CF80700012800E00DE018BF02281BD0032818BF042817D01EE06A
:2074E000CCF81840CCF81C40CCF82040052818BF062833D1DCF828004FEA9060CCF82800E5
:20750000DCF824004FEA9060CCF8240026E08CF80A60CCF81840CCF81C40CCF820409CF87A
:20752000080002281CBF032804280CD19CF8070001281CBF0528062805D1CCF82840CCF84A
:2075400024408CF80A709CF80800012818BF8CF8094003D09CF80800F0BC70479CF80900F1
:20756000401CC0B28CF80900782884BF78208CF80900EFD1CCF81840CCF81C40CCF8204088
:20758000CCF82840CCF824408CF80A60E2E7000010B483B04FF0010CADF800C09DF8002083
:2075A00000216FF00043012A19BF4FF0FF32CDE90032FD4ACDE900129DED000BFB4A82ED55
:2075C0001E0BADF800C09DF80040012C08BFF84B5364E4B2F74BADF800C0012C14BFCDE967
:2075E0000031CDE900139DED000B4FF0FF4382ED1A0BD363ADF800C09DF800C0EE4BBCF111
:20760000010F14BFCDE90031CDE900139DED000BEA4B82ED1C0B136480F8CE1880F8CD1845
:2076200080F8CC1803B010BC70472DE9F0410D462DED048BB7EE009A044690ED000AD0EDA8
:20764000040A30EE090A30EE600AD0ED080A30EE608ADFEDDB9AB5EEC08AF1EE10FAD8BFDE
:20766000B0EE698A94ED070AD4ED050A30EE600AB5EEC00AF1EE10FA34BF4FF0FF384FF091
:20768000010894ED020AD4ED060A30EE600AB5EEC00AF1EE10FA34BF4FF0FF37012794ED94
:2076A000030AD4ED010A30EE600AB5EEC00AF1EE10FA34BF4FF0FF36012618EE100A0AF06B
:2076C00004FE41EC100B21F0C3FF51EC100B0AF03FFE00EE100AF6EE008A60EE280A00EE1A
:2076E000108AB8EEC00A20EE800A85ED000A94ED000AD4ED040A39EE400A30EE200AD4ED98
:20770000080A30EE600AB5EEC00AF1EE10FA04D9B4EE400AF1EE10FA01D0B0EE690A10EEE7
:20772000100A0AF0D2FD41EC100B21F091FF51EC100B0AF00DFE00EE100A60EE280A00EEAA
:20774000107AB8EEC00A20EE800A85ED010A94ED000AD4ED040A39EE400A30EE600AD4ED06
:20776000080A30EE200AB5EEC00AF1EE10FA04D9B4EE400AF1EE10FA01D0B0EE690A10EEC7
:20778000100A0AF0A2FD41EC100B21F061FF51EC100B0AF0DDFD00EE100A60EE280A00EEDB
:2077A000106AB8EEC00A20EE800A85ED020A94ED000AD4ED040A30EE090A30EE200AD4ED35
:2077C000080A30EE200AB5EEC00AF1EE10FA07D9B4EE400AF1EE10FA08BFB0EE408A01D044
:2077E000B0EE698A18EE100A0AF06FFD41EC100B21F02EFF51EC100B0AF0AAFD00EE100AEB
:2078000020EE280A85ED030ABDEC048BBDE8F08110B504462DED088BB0EEC09AF0EEE08A5F
:20782000B0EEC18A9FED68ABB4EEE89AF1EE10FAC4BFB4EEC89AF1EE10FA5ADDB5EEC00A9F
:2078400018EE900AF1EE10FA2ADD0AF03EFD53EC1A2B0AF003FC41EC1B0B19EE100A0AF078
:2078600034FD53EC1B2B0AF05BFD80F0118118EE100A0AF02AFD53EC1A2B0AF0EFFB41EC28
:20788000180B19EE100A0AF020FD53EC182B0AF047FD38BF042080F0FB80BDEC088B10BDBE
:2078A0000AF013FD53EC1A2B0AF0D8FB41EC1B0B19EE100A0AF009FD53EC1B2B0AF030FD4D
:2078C0006ED218EE100A0AF000FD53EC1A2B0AF0C5FB41EC180B19EE100A0AF0F6FC53EC77
:2078E000182B0AF01DFD38BF052059D2BDEC088B10BDF4EEC88AF1EE10FA71DDF5EEC00AC9
:2079000019EE100AF1EE10FA28DD0AF0DEFC53EC1A2B0AF0A3FB41EC190B18EE900A0AF07D
:20792000D4FC53EC192B0AF0FBFC39D218EE100A0AF0CBFC53EC1A2B0AF090FB41EC190BBD
:2079400018EE900A0AF0C1FC53EC192B0AF0E8FC38BF012024D2BDEC088B10BD0AF0B5FCAD
:2079600053EC1A2B0AF07AFB41EC190B18EE900A0AF0ABFC53EC192B0AF0D2FC10D218EE4F
:20798000100A0AF0A2FC53EC1A2B0AF067FB41EC190B18EE900A0AF098FC53EC192B17E05C
:2079A00076E01DE0000000000000F8FF380C00200000C0FF0000F07F0000F0FF000080FF7D
:2079C0000000000000000000000000E051B8F63F0AF0A6FC38BF03205AD2BDEC088B10BD9E
:2079E000B5EEC01A18EE900AF1EE10FA28DD0AF06CFC53EC1A2B0AF031FB41EC1B0B18EE17
:207A0000100A0AF062FC53EC1B2B0AF089FC3FD219EE100A0AF059FC53EC1A2B0AF01EFBD8
:207A200041EC190B18EE100A0AF04FFC53EC192B0AF076FC38BF00202AD2BDEC088B10BD85
:207A40000AF043FC53EC1A2B0AF008FB41EC1B0B18EE100A0AF039FC53EC1B2B0AF060FCEF
:207A600016D219EE100A0AF030FC53EC1A2B0AF0F5FA41EC190B18EE100A0AF026FC53EC9E
:207A8000192B0AF04DFC3EBF0220BDEC088B10BD2046BDEC088B10BD70B50D462DED0E8B9D
:207AA0001FED399A90ED000AD0ED018AD0ED029A90ED03AAFA4CD2ED001A92ED012A606A02
:207AC00092ED021A03B3B0EE688AF0EE408AF1EE699AB1EE411AF0EE610AB0EE420AFFF718
:207AE00097FE6062F0EE00AA9FEDEFBB9FEDF0CB9FEDF10AF14C9FEDF2EA06287CD2DFE8BB
:207B000000F00D10454A450DB0EE408AF0EE420AB0EE610AFFF77CFE6062E3E795ED009AC4
:207B20006FE068EE081A28EEA80A69EEA90A2AEE0A1A31EEC00A30EE600A30EE010A10EED8
:207B4000100A0AF0C2FB28EE280A41EC1D0B09EE8A0A20EE2A0A10EE100A0AF0B6FB41ECFA
:207B6000100BB0EE4D1AF0EE6D1A20F0C9F953EC1B2B51EC100B0AF071FA53EC1C2B0AF0EC
:207B800067FA0AF0E5FB09EE100A3AE0D5ED000A30EE809A35E028EE080A68EEA80A29EE1F
:207BA000A91A6AEE0A1A30EE600A30EE410A30EE210A10EE100A0AF088FB28EE280A41EC42
:207BC0001D0B09EE8A0A20EE2A0A10EE100A0AF07CFB41EC100BB0EE4D1AF0EE6D1A20F065
:207BE0008FF953EC1B2B51EC100B0AF037FA53EC1C2B0AF08CF900E009E00AF0A9FB09EE92
:207C0000100A19EE100AA042A8BF39EE4E9AB5EEC09AF1EE10FA38BF39EE0E9AB0EE490A34
:207C2000BDEC0E8B70BD2DE9F05FA64E81461746884630461FF07EFDA6F1F00A4FF0000BAF
:207C4000CAF8F9B0CAF8FDB08AF801B1CAF802B1CAF806B18AF80AB199F80010A1F1420076
:207C60001828204638BF203161F3070098F80020A2F142011829214638BF203262F30701E7
:207C80003B78A3F14202182A224638BF203363F3070299F80130A3F1420CBCF1180F38BF97
:207CA000203363F30F2098F80130A3F1420CBCF1180F38BF203363F30F217B78A3F1420CD0
:207CC000BCF1180F38BF203363F30F2299F80230A3F1420CBCF1180F38BF203363F317408F
:207CE00098F80230A3F1420CBCF1180F38BF203363F31741BB78A3F1420CBCF1180F38BF34
:207D0000203363F317420124C3B2A51E732B08BFF57013D00BDC642B08BFB5710ED0652B86
:207D200008BF34700AD06E2B08BFF47006E0752B08BFB47102D0772B08BF3570C0F307230B
:207D4000732B08BF357113D00BDC642B08BFF5710ED0652B08BF74700AD06E2B08BF34719A
:207D600006E0752B08BFF47102D0772B08BF7570C0F30740732808BF757113D00BDC642899
:207D800008BF35720ED0652808BFB4700AD06E2808BF747106E0752808BF347202D07728A2
:207DA00008BFB570CBB24848732B08BFC57013D00BDC642B08BF85710ED0652B08BF047071
:207DC0000AD06E2B08BFC47006E0752B08BF847102D0772B08BF0570C1F30723732B08BF00
:207DE000057113D00BDC642B08BFC5710ED0652B08BF44700AD06E2B08BF047106E0752B99
:207E000008BFC47102D0772B08BF4570C1F30741732908BF457113D00BDC642908BF0572CC
:207E20000ED0652908BF84700AD06E2908BF447106E0752908BF047202D0772908BF85703F
:207E4000D1B22248732908BFC57013D00BDC642908BF85710ED0652908BF04700AD06E2971
:207E600008BFC47006E0752908BF847102D0772908BF0570C2F30721732908BF05712ED065
:207E800026DC642908BFC57129D0652908BF447025D06E2908BF047121E00000000000008B
:207EA000380C00200000000000000020DCA54C400000000000805640000034430000B443AD
:207EC0000000B443345A0020465A00203D5A0020752908BFC47102D0772908BF4570C2F349
:207EE0000741732908BF457113D00BDC642908BF05720ED0652908BF84700AD06E2908BF2D
:207F0000447106E0752908BF047202D0772908BF8570CAF80BB1CAF80FB18AF813B1FE4E2B
:207F200030461FF007FCCAF81DB1CAF821B18AF825B199F80010A1F142001828384638BF13
:207F4000203161F3070098F80020A2F142011829414638BF203262F307013B78A3F14202F6
:207F6000182A4A4638BF203363F3070299F80130A3F1420CBCF1180F38BF203363F30F203F
:207F800098F80130A3F1420CBCF1180F38BF203363F30F217B78A3F1420CBCF1180F38BFFA
:207FA000203363F30F2299F80230A3F1420CBCF1180F38BF203363F3174098F80230A3F121
:207FC000420CBCF1180F38BF203363F31741BB78A3F1420CBCF1180F38BF203363F31742A5
:207FE00000F0FF0CCD4BBCF1730F08BFDD7018D00EDCBCF1640F08BF9D7112D0BCF1650F61
:020000040800F2
:2080000008BF1C700DD0BCF16E0F08BFDC7008E0BCF1750F08BF9C7103D0BCF1770F08BF39
:208020001D70C0F3072CBCF1730F08BF1D7118D00EDCBCF1640F08BFDD7112D0BCF1650F3F
:2080400008BF5C700DD0BCF16E0F08BF1C7108E0BCF1750F08BFDC7103D0BCF1770F08BF38
:208060005D70C0F30740732808BF5D7113D00BDC642808BF1D720ED0652808BF9C700AD045
:208080006E2808BF5C7106E0752808BF1C7202D0772808BF9D70CBB2A148732B08BFC57099
:2080A00013D00BDC642B08BF85710ED0652B08BF04700AD06E2B08BFC47006E0752B08BF46
:2080C000847102D0772B08BF0570C1F30723732B08BF057113D00BDC642B08BFC5710ED00E
:2080E000652B08BF44700AD06E2B08BF047106E0752B08BFC47102D0772B08BF4570C1F3A0
:208100000741732908BF457113D00BDC642908BF05720ED0652908BF84700AD06E2908BF0A
:20812000447106E0752908BF047202D0772908BF8570D0B2732808BFF57013D00BDC6428FC
:2081400008BFB5710ED0652808BF34700AD06E2808BFF47006E0752808BFB47102D07728E1
:2081600008BF3570C2F30720732808BF357113D00BDC642808BFF5710ED0652808BF747016
:208180000AD06E2808BF347106E0752808BFF47102D0772808BF7570C2F30740732804BFDD
:2081A0007571BDE8F09F0EDC642804BF3572BDE8F09F652804BFB470BDE8F09F6E2808BF8C
:2081C0007471BDE8F09F752804BF3472BDE8F09F772808BFB570BDE8F09F90ED001AD0ED39
:2081E000010A90ED022A90ED030A61EE011A61EE202A21EE023A21EE004A20EEA01A60EE84
:20820000823A60EE804A62EE020A22EE005A20EE002A08469FED430A5FF0040281ED000A98
:2082200080ED010A80ED020A0830521EF8D131EEC10A72EE855A72EEC52A30EE600A30EEBE
:20824000020A81ED000AB0EE000A65EE805A62EE802AC1ED035A73EE645A65EE805AC1EDC6
:20826000065AC1ED012A71EE612A72EEE02A72EE822AC1ED042A73EE842A62EE802AC1EDD2
:20828000072A73EE242A62EE802AC1ED022A73EEC42A22EE800A81ED050AB1EE610A30EE9C
:2082A000410A30EE200A30EE020A81ED080A70479FED1C0AD0ED004A91ED031AF0EE400A4E
:2082C00090ED014A44EE810A91ED025AD1ED015AD0ED023A90ED033AF1EE652A44EE050AC4
:2082E00091ED006AF1EE451AB1EE462A43EEA20A43EE060AC2ED000AF0EE400A44EEA10A6D
:2083000044EE010A43EE860A43EE250AC2ED010AF0EE400A08E00000585A00204F5A00209A
:20832000615A00200000000044EEA50A04EE820A44EE020A04EE220A43EE810A03EEA10A4F
:2083400043EE050A03EE010AC2ED020A82ED030A704710B5D0ED010A90ED000A20EEA01A17
:2083600020EE000AD0ED020A60EEA00A31EE000A30EE800A10EE100A09F0A7FF41EC100B54
:2083800021F066F951EC100B09F0E2FF00EE100A10BD2DE9F00390E8F81389B08DE8F81321
:2083A000036A089390ED000AD0ED010A0127B0EEC00AF0EEE00A0223F4EEC00A4FF0030CEF
:2083C000F1EE10FA03DD0227B0EE600A0123D0ED020AF0EEE00AF4EEC00AF1EE10FA03DD79
:2083E000032702234FF0010C00EB830400EB870014ED010A50ED010A6E4606EB830080EE14
:20840000201A06EB8C0406EB870500ED011A14ED010A55ED010A80EE201A04ED011A90ED92
:20842000020A50ED010A95ED021A00EEC10A80ED020A94ED020A54ED010A95ED021A00EEB3
:20844000C10A84ED020A90ED050A50ED010A95ED051A00EEC10A80ED050A94ED050A54ED59
:20846000010A95ED051A00EEC10A84ED050A94ED020AD0ED020AB0EEC00AF0EEE00AB4EEEF
:20848000E00AF1EE10FA02DD18466346844606EB8C0406EB830694ED020A96ED021A01EB46
:2084A000870701EB8303C0EE010A01EB8C00C4ED020A94ED052A96ED050A00EEC02A84ED43
:2084C000052A17ED010A82ED000A13ED011A56ED013A00EE631A82ED011A10ED013A54EDDE
:2084E000011A00EE613A01EE603AC3EE022AC2ED022AD6ED054A96ED025A95ED053A02EEF5
:20850000E41A02EEC30A81EE054A82ED014AD5ED022A04EE620A15ED014A80EE041A82ED94
:20852000001A97ED020A82ED030A93ED021A00EE631A82ED041AD0ED025A40EE615A41EE50
:20854000605A85EE826A82ED056A06EE641A06EE430AC1EE055AC2ED045A05EEE20A80EE09
:20856000041A82ED031A97ED050A82ED060A93ED051A00EE631A82ED071AD0ED053A40EE7B
:20858000613A41EE603AC3EE820AC2ED080A00EEE41A00EEC30AC1EE050AC2ED070A00EE66
:2085A000E20AC0EE040AC2ED060A09B0BDE8F003704770B50D462DED048BB0EE408A044679
:2085C000D0ED008AF4EEC88AF1EE10FA22BF91ED000ABDEC048B70BD94ED0C9AB4EEC89A3E
:2085E000F1EE10FADEBF91ED0C0ABDEC048B70BDFE4890ED1E0B51EC100B09F0A9FE00EE2A
:20860000100AF4EEC88AF1EE10FA84BFBDEC048B70BDB4EEC89AF1EE10FABCBFBDEC048BDB
:2086200070BD012302210D201A18520804EB820C1CED010AB4EEC80AF1EE10FA9ABF13466D
:20864000511C10468842EFD8581C04EB800105EB800051ED010A04EB830111ED010A70EE4F
:20866000C00A38EE400A80EE201A50ED010A05EB830010ED010ABDEC048B70EEC00A01EE06
:20868000200A70BD2DE9FF5F07462DED0C0BD8482DED108BADF5D36D0DF1A809B0EE40EA63
:2086A000B0EE44CAF0EE64CAF0EE619AB0EE41DAF0EE60DAB0E87E1189E87E11B0E81E106B
:2086C00032AD0DF20C6985E81E10B0E87E1189E87E11B0E81E100DF22C650DF58A7985E8BD
:2086E0001E10B0E87E1189E87E11B0E81E104DAD0DF5C96985E81E10B0E87E1189E87E116F
:20870000B0E81E100DF5CD650DF1800985E81E10B0E87E1189E87E1170E85812CDE9281264
:2087200000F5B4710DF5D07991E87E1189E87E11D0E96212CDE9701200F5C8710DF5E479DA
:2087400091E87E1189E87E11D0E96C12CDE97A1200F5DC700DF5BA78B0E87E1088E87E10FF
:2087600090E83F108AAE86E83F10DDF8680700240470DDF86C070470DDF870070470DDF810
:208780000C0790ED000A9B4880ED000ADDF80C1791ED010A80ED010A91ED020A80ED020AE9
:2087A0000846FFF7D6FD914D85ED180A85ED190ADDF81007FFF7CDFDDDF80C07B0EE40AA7F
:2087C00090ED000A8DED9A0A8DEDA40AD0ED010ACDED9B0ACDEDA30AD0ED020ACDEDA60A0B
:2087E000CDEDA20ADDF8100790ED001A8DED9C1AC1EE0A1A8DED9F1AD5ED180AC0EE20BAEE
:20880000CDED041A90ED010A8DED9E0A8DEDA00ADDF80C0790ED011A81EE20BA80EE0A1A57
:208820008DED051ADDF8100790ED020A8DED9D0A8DEDA10ADDF80C0790ED022AC2EE20AAD9
:20884000C0EE0A0ACDED060A9FED6B8ADDF87807B0EE489A90F8CD080BEEA19A0BEE019A12
:208860000AEEA09ADFED65EADDF87817012601F10C0901F10808091DCDF88416DDF878172E
:20888000B0EE00FA01F50061CDF84416DDF87817002801F58061AC9140F03082DDF87807F4
:2088A000F7EE008A80F83040DDF8780780F8CD68DDF8780780F83160DDF8780780ED0ECB69
:2088C0008DED1A8A8DED1B8A8DED1C8A8DED1D8ADDF87807046444648464C4640465446594
:2088E0008465C4650466DDF87807C0ED188ADDF87807C0ED148ADDF87807C0ED108ADDF84A
:20890000780744668466C466046744678467C467C0F88040C0F88440C0F88840C0F88C40F6
:20892000C0F89040DDF8780780ED258ADDF8780780ED268ADDF8780780ED278A9FED300A96
:20894000DDF878074FF4A27180ED2B0ADDF87807C0ED2C8ADDF87807C0ED2D8ADDF854072C
:2089600090ED000ADDF87807B5EEC00A00F1B800F1EE10FA20D109F093FADDF87807B1EEB3
:20898000040A012280ED2E0A4FEA0200DDF8781702EB820301EBC301801C81ED2E0A511C91
:2089A000DDF8783701EB810203EBC20282ED2E0A4A1C0928EADB2BE009F072FADDF878074B
:2089C000B1EE040A80ED2E0A01200146DDF8783700EB800203EBC202401C82ED2E0ADDF862
:2089E000783700EB800203EBC2020BE0380C0020E44903089C5A0020000000000AD7A33C4C
:208A00006666663F401C891C82ED2E0A0929DDDBDDF87807314600F5FE701EF090FEDDF8B4
:208A200078074FF4B471C0F81442C0F81842C0F81C42C0F82042C0F82442C0F82842C0F807
:208A40002C42C0F83042C0F83442DDF87807C0ED8D8ADDF87807C0ED898ADDF87807C0ED23
:208A6000858ADDF87807C0F83842C0F83C42C0F84042C0F84442C0F84842C0F84C42C0F873
:208A80005042C0F85442C0F85842DDF87807C0ED968ADDF87807C0ED928ADDF87807C0ED65
:208AA0008E8ADDF8780700F5177009F0F9F9DDF8780780EDF18ADDF8780780EDF28ADDF895
:208AC000780780EDF38ADDF8780780EDF48ADDF8780780EDF58ADDF8780780EDF88ADDF896
:208AE000780780EDFB8ADDF8780780EDFE8ADDF8780780EDF68ADDF8780780EDF98ADDF862
:208B0000780780EDFC8ADDF8780780EDFF8ADDF8780780EDF78ADDF8780780EDFA8ADDF83D
:208B2000780780EDFD8AAC9880ED008AAC9880ED018AAC9880ED028AAC9880ED038AAC988C
:208B400080ED048AAC9880ED058AAC9880ED068AAC9880ED078AAC9880ED08FAAC9880EDF3
:208B6000098ADDF8840600F5806080ED098A08F5806080ED098A09F5806080ED098AAC982F
:208B800080ED0D8AAC9880ED0E8AAC98C0ED0F8A51EC1C0B09F0DCFB00EE100AAC9832212B
:208BA00020EE2E0A00220DF1400C80ED100AAC98904680ED118AAC98C0ED128AAC9880ED1C
:208BC000138ADDF87807C0F85044DDF87807C0F85444DDF87807C0F85814DDF87807C0F830
:208BE0005C44DDF80C0790ED000A8DED100ADDF8100790ED000A8DED130ADDF8140790ED5B
:208C0000000A8DED160ADDF80C0790ED010A8DED110ADDF8100790ED010A8DED140ADDF8CA
:208C2000140790ED010A8DED170ADDF80C0790ED020A8DED120ADDF8100790ED020A8DED00
:208C4000150ADDF8140790ED020A8DED180ADDF8780700F58C6303EB82009CED000A6146FE
:208C600080ED000A4FF0040991ED010A80ED010A91ED020A083180ED020A0830B9F1010908
:208C8000F2D1093208F10108B8F11E0FE3DBDDF854074FF47A7190ED000ADDF8440680EDCF
:208CA000260ADDF8540790ED010ADDF8440680ED270ADDF8540790ED020ADDF8440680EDCA
:208CC000280ADDF8780780F8A448DDF87807A0F8A648DDF87807A0F8A848DDF87807A0F808
:208CE000AA18DDF8780780F8AD48DDF8780780F8AE48DDF87807C0F8B04800BF97E80F00DE
:208D00001AAC84E80F00DDF8780780ED0ECB51EC1C0B09F01DFB00EE100ACDF8F805AC98F5
:208D200020EE2E0A80ED100AFE48AC99B0EE480AD0ED001AD1ED180A90ED011AD0ED022AB3
:208D400001EEA00AD1ED210A91ED3C3A01EE200AD0ED030AB0EE402A91ED2A0A02EE802A66
:208D600091ED330A00EE802A90ED040ADDF8780700EE032A80EDF82AAC98B0EE482A90ED46
:208D8000193A01EE832A90ED223A01EE032A90ED2B3A02EE832A90ED343A00EE832A90ED6D
:208DA0003D3ADDF8780700EE032A80EDF92AAC98B0EE482A90ED1A3A01EE832A90ED233AA2
:208DC00001EE032A90ED2C3A02EE832A90ED353A00EE832A90ED3E3ADDF8780700EE032A0C
:208DE00080EDFA2AAC98B0EE482A90ED1B3A01EE832A90ED243A01EE032A90ED2D3A02EE55
:208E0000832A90ED363A00EE832A90ED3F3ADDF8780700EE032A80EDFB2AAC98B0EE482AD2
:208E200090ED1C3A01EE832A90ED253A01EE032A90ED2E3A02EE832A90ED373A00EE832AC0
:208E400090ED403ADDF8780700EE032A80EDFC2AAC98B0EE482A90ED1D3A01EE832A90EDD8
:208E6000263A01EE032A90ED2F3A02EE832A90ED383A00EE832A90ED413ADDF8780700EE2F
:208E8000032A80EDFD2AAC98B0EE482A90ED1E3A01EE832A90ED273A01EE032A90ED303A6B
:208EA00002EE832A90ED393A00EE832A90ED423ADDF8780700EE032A80EDFE2AAC98B0EEAB
:208EC000482A90ED1F3A01EE832A90ED283A01EE032A90ED313A02EE832A90ED3A3A00EE4F
:208EE000832A90ED433ADDF8780700EE032A80EDFF2AAC98B0EE482A90ED203A01EE832AFF
:208F0000D0ED291A01EE212A90ED321A02EE812A90ED3B1A00EE812AD0ED440A00EE202A05
:208F200080ED002ADDF8780700F57870FFF711FA85ED140ADDF8780700F57B70FFF709FAAB
:208F400085ED150ADDF8780700F57E70FFF701FA85ED160AAC98D5ED140AB0EE6A1AC0EDD3
:208F6000010AAC98D5ED150AB0EE4B3AC0ED020AAC98B0EE6B2A80ED030ADDF878079DED16
:208F8000040A80ED900ADDED052ADDF8780762EE810AC0ED932ADDED061ADDF8780741EEBD
:208FA000C30AC0ED961A61EE821ADDF8780740EE411A20EE031AC0ED8F0ADDF8780720EEEC
:208FC000A00A02EEC21AC0ED921ADDF8780761EEA10A80ED951A21EE011A30EE800A31EE67
:208FE000000A10EE100A09F070F941EC100B20F02FFB51EC100B09F0ABF900EE900ADDF819
:20900000780737AA90ED8F0AC0EE201AC0ED8F1ADDF8780790ED920A80EE201A80ED921A6E
:20902000DDF8780790ED952A82EE200A80ED950ADDF8780790ED962AD0ED932A90ED903AA8
:2090400061EE020A40EE620A20EE030A01EEC20A61EEA21AC0ED8E0ADDF8780741EE431A15
:2090600080ED910ADDF87807C0ED941ADDF8780700F50E7100F50570FFF78BF940A937A8C5
:20908000FEF7D3FA00211D22DDF87837A1EB810003EB8000491C90EDEB0A521E80EDEE0A03
:2090A00090EDEC0A80EDEF0A90EDED0A80EDF00AEAD1DDED400AB0EE000ADDF8780720EE23
:2090C000801A002364AF1A46C1EE290A1946F3EE0D1AC0ED970ADDED410ADDF8780720EE52
:2090E000801AC1EE290AC0ED980ADDED420ADDF8780760EE800A80EEA90AF3EE0E9A80ED4C
:20910000990ADDF8780700F517785B1C08EB830909F1080059ED010A99ED022A32EE200A8F
:2091200002E00000581E00204FF00E0C12F1010290ED031A31EE000A90ED061A1830BCF103
:20914000010C31EE000AF3D180EE291A09F108004FF00E0C30EEC10A72EE410A20EE000A5D
:2091600000EEA00AD0ED030A70EEC10A00EEA00AD0ED060A1830BCF1010C70EEC10A00EEE6
:20918000A00AEFD107EB8200491CC0EE210A032940ED010AB9DB649809F097F841EC100BEF
:2091A00020F056FA51EC100B09F0D2F86490659809F08BF841EC100B20F04AFA51EC100BD3
:2091C00009F0C6F86590669809F07FF841EC100B20F03EFA51EC100B09F0BAF8669064A8E0
:2091E000FFF7B7F8DDF878070DF2944EF6EE008A80EDF10ADDF8780700F51770CDF88006A4
:20920000DDF8780700F57270CDF87C060020CDF8FC05CDF88C06CDF88806FB48D0ED101A22
:2092200090ED0F1ADDF88C06DDF8FC15401C491CDDF88026CDF88C06CDF8FC1502EB800065
:209240000121051FAEAB74460DF274421E208C4695ED000A401EA3EC010A04F801CB02F8AA
:20926000011B01F1010105F10C05F1D10DF27443AEA9821C01EB800401EB8202D4ED000ABF
:2092800012ED010AF4EEC00AF1EE10FA09D9B4EE400AF1EE10FA04D1821C1A54421C1C1805
:2092A0006270801C1E28E4DB0220AA904000CDF84006AA98012500F1010CBCF11F0F7DDAFC
:2092C000DDF840262846AB1861461F2B02F39C8601225E1B012E47DB0DF2744404EB000B7C
:2092E000AEAF1BF9018C04EB010A07EB880959ED010A1AF9019C07EB890717ED010AF4EE7F
:20930000C00AF1EE10FA3DD9B4EE400AF1EE10FA38D10EEB0207491C07F8019C994220D1D7
:20932000604582F28386ACEB0009B9F1000F18DD7F1EABF1020419F0010F02D007F8018F04
:20934000641C5FEA69080AD094F801A087F801A014F802AF07F802AFB8F10108F4D14A443A
:209360004844521C9642B7DA6D1E721E002A47DD0DF274412944491EAEF1010016F0010FE3
:209380002FD12AE00EEB0207401C07F8018C6045E7D1994282F23B86A3EB0108B8F1000F1D
:2093A000DFDD7F1EAAF1020418F0010F02D007F8019F641C5FEA68090CD000E030E094F898
:2093C00001A087F801A014F802AF07F802AFB9F10109F2D142444144C3E710F801CF01F862
:2093E00001CF90F901C052100AD000BF10F8024F81F801C090F901C001F8024F521EF5D1FB
:20940000701E05D41EF8001028440DF274421154AA981D4603EB000CBCF11F0FFFF650AFCB
:20942000DDF84006AA901E287FF740AF9DF99114AEA800EB810111ED010AB4EE400AF1EE5A
:2094400010FA3CD19DF9821400EB810111ED010AB5EEC00AF1EE10FA34BF012200229DF92F
:20946000831400EB810050ED010AF5EEC00AF1EE10FA34BF0120002082421CD1B4EE410A39
:20948000F1EE10FA1EBFB0EE402AB4EE612AF1EE10FA10D0F4EE410AF1EE10FA1FBFB0EE76
:2094A000602AB4EE612AF1EE10FA70EEC00A18BF00EEA80A03D130EE200A20EE280ADDF83C
:2094C000FC15DDF87C0600EB810000ED010ADDF88806401CCDF888060328FFF6A3AEDDF868
:2094E000780700F57270FEF734FFB0EE401AB1EE000A454D8DEDA71A2EEE001AD5ED141A5A
:20950000AC98C1EE810A2DEE801AC0ED090A95ED152AAC98C2EE011A2DEE001AC0ED0A1A82
:2095200095ED160AAC98C0EE011AC0ED0B1A9DEDA71AF6EE001AAC9821EE211A80ED0C1A40
:20954000DDF8780700F2244090ED011A71EE200A90ED021A71EE200A90ED031AAC9871EEE1
:20956000200AB5EE001A60EE810A9FED281AC0ED0D0A62EE210AAC9840EE010A9FED240AE7
:2095800020EE80FA80ED06FADFED22EADDF8786796F8CE0880BB01209FED1F8B002786F8AF
:2095A000CE08052406EB870000F5006080ED2EFA06EBC70090ED020B51EC180B53EC102B2E
:2095C00008F0A5FC41EC180B641E07F10107E9D100274FF0050800BF06EBC70453EC182BF6
:2095E00094ED020B51EC100B08F0AAFD7F1CC4E90201B8F10108EFD15FF0040406EB84005D
:2096000000F500600CE00000380C00203333333FCDCC4C3F000000000000000000000000A9
:2096200090ED2D8A80ED2E8A06EBC40090ED020B51EC100B08F08CFE00EE100A601E10F032
:20964000FF0440EE08EAD9D106F5006080ED2EFA96ED020B51EC100B08F07AFE00EE100AED
:20966000AC981FED138B40EE0FEA53EC182BC0ED07EA51EC1C0B08F03BFE08D8AC98B7EE57
:20968000000A80ED110AAC9880ED130A1DE09FEDFA0B51EC1C0B53EC102B08F029FE64D1AA
:2096A000AC980DF20C6190ED070A2AA8FEF781FFAC980DF5C96180ED110AB0EE6E0A45A82A
:2096C000FEF777FFAC9880ED130AAC9890ED110A80ED120ADDF87807D5ED18FA90ED2D0A10
:2096E0003FEEC00AB0EEC00A10EE100A08F0EDFD41EC100B1FF0D0F951EC100B08F0CCFDD8
:20970000DDF868170870DDF87807DD4990ED2D0A3FEEC00AB0EEC00A85ED170AD0ED2B0A6B
:20972000AC9879EE600AF0EEE00A30EE200A80ED0E0A10EE100A884259DBDFEDD20AAC987D
:20974000D14930EE601AF0EE080AB7EE000A01EE200A80ED0F0A10EE100A88424CDDAC98CA
:20976000B1EE040A80ED0F0A46E0DDF8F805DDED2A0A00EE100A2AA945AA20EE200A062395
:209780008DED2A0A00EE100ADDED450A20EE200A8DED450ADDF8F805D1ED010A01EE100A55
:2097A00092ED010A61EE200AC1ED010ADDF8F80500EE900A20EE800A82ED010ADDF8F805AF
:2097C00091ED021A00EE900A92ED020A60EE810AC1ED020ADDF8F805083100EE900A20EEA8
:2097E000800A82ED020A08325B1ED3D158E7AC98B7EE000A80ED0F0AB7EE00FA3FEECF0AB0
:20980000B0EEC00A10EE100A08F05FFD9FEDA01B53EC112B08F01CFC41EC100B8DEDAA0B2B
:20982000AC98C06B08F051FD41EC100B9DEDAA1B1FF0BEF951EC100B08F08AFDAC99964E16
:20984000964FC863DDF8780790F8310000287AD0DDF8780790F83000002874D1AC98F6EED8
:20986000000A90ED0D1A0DF5806090EDBA0A20EE200AB4EEC01AF1EE10FA64D2DDF87807F0
:209880009DED042A80ED122ADDED051ADDF8780721EEAA1AC0ED151A9DED060ADDF878078D
:2098A00000EE4B1A60EE2B0A80ED180ADDF8780722EE0B0A42EE6A0A80ED111ADDF878073A
:2098C00001EEEB0A21EE011AC0ED140ADDF8780760EEA00A80ED170A60EE001A30EE810AC4
:2098E00031EE800A10EE100A08F0EFFC41EC100B1FF0AEFE51EC100B08F02AFD00EE100A42
:20990000DDF87807D0ED110A80EE801A80ED111ADDF87807D0ED141AC1EE800AC0ED140A38
:20992000DDF87807D0ED171A81EE802A80ED172ADDF87807D0ED182AD0ED121A90ED150A46
:2099400020EEA23A00E056E002EE403A22EE212A21EE000A1AA901EE622A80ED103ADDF85F
:20996000780700EEE10A80ED132ADDF8780780ED160ADDF878074030FDF757FEDDF87807A3
:2099800080ED2B9A1AEE100A3044B842DDF878072CBF80ED2CFA80ED2CAA4FF4A271DDF8C5
:2099A0007807B83008F07CFADDF87807B1EE040A002380ED2E0A01204FEA0001DDF878273A
:2099C00000EB800C02EBCC02401C82ED2E0A00EB8002DDF878C7401C0CEBC202891C82EDA6
:2099E0002E0A0929EADBDDF87807012180F83130DDF8700701701AAC94E80F007CACA046CD
:209A000084E80F00DDF87807A0EB080010F1900144BF6FF08F01091A242943DA10F1900F33
:209A200040D0DDF8780790ED250A01208DED800ADDF8781701EB800208EB800192ED250AFD
:209A4000801C81ED040A92ED260A092881ED050AEEDB00204FEA000408EB800191ED000A6F
:209A6000B4EE400AF1EE10FA26D000200921DFED0CFA00F057BD0000000000000000F03FCC
:209A8000CDCCCC3DCDCCCC3D0000A04000000000000000000000E03F3233B3C0CCCC4C00C7
:209AA00000000000DDF87807242200F1940108F1100008F0CDF9CCE7401C0D28CCDB9DED4A
:209AC0001A0AB5EEC00AF1EE10FA02BF9DED1B0AB5EEC00AF1EE10FA7BD19DED1C0AB5EEA7
:209AE000C00AF1EE10FA02BF9DED1D0AB5EEC00AF1EE10FA6DD1B8E700281CBF04280828AF
:209B000000F01085DDF8782702EB8002C2ED10FA00F10100491EEFD1DDF878071AA9403084
:209B2000FDF783FDDDF87807C0ED25FADDF87807C0ED26FADDF87807C0ED27FADDF854071E
:209B400090ED000ADDF8780780ED280ADDF8540790ED010ADDF8780780ED290ADDF85407AF
:209B600090ED020ADDF8780780ED2A0A9FEDFE0ADDF878074FF4A27180ED2B0ADDF8780733
:209B800080ED2CFADDF8780780ED2DFADDF87807B83008F085F9DDF87807B1EE040A80ED2A
:209BA0002E0A01204FEA000100EB8003DDF87827401C02EBC30200EB800382ED2E0ADDF838
:209BC0007827401C02EBC302891C82ED2E0A0929EADB0DF5806053EC182B90EDBC0B51ECB0
:209BE000100B08F085FB7CD0AC98B0EE000A90ED0D1A0DF58060D0EDBA0A20EE800AB4EE59
:209C0000C10AF1EE10FA6CDDDDF87807DDED040AC0ED120ADDED051ADDF8780721EEAA1A42
:209C2000C0ED151A9DED060ADDF8780700EE4B1A80ED180A20EE2B0ADDF8780700EEEA0AFF
:209C400060EE8B0A80ED111ADDF8780721EE011A41EEEB0A80ED140ADDF8780720EE000AF0
:209C6000C0ED170A60EEA00A30EE010A30EE800A10EE100A08F029FB41EC100B1FF0E8FCDE
:209C800051EC100B08F064FB00EE100ADDF87807D0ED110A80EE801A80ED111ADDF87807ED
:209CA000D0ED140AC0EE801AC0ED141ADDF8780790ED172AC2EE000AC0ED170ADDF87807B8
:209CC00090ED180A90ED152AD0ED122A21EE803A00EEC23A60EEA20A41EE400A21EE020AEF
:209CE00000E04DE080ED103ADDF8780701EEE20A1AA9C0ED130ADDF8780780ED160ADDF82E
:209D000078074030FDF791FCDDF8701701200870DDF8780780ED2B9ADDF8780795ED180A60
:209D200080ED2D0A1FEDA20ADDF8780780ED2E0ADDF8780780ED370ADDF8780780ED400AC1
:209D4000DDF8780780ED2F0ADDF8780780ED380ADDF8780780ED410ADDF8780780ED300AFF
:209D6000DDF8780780ED390ADDF8780780ED420ADDF8780780ED6A0ADDF8780780ED7E0A54
:209D80005FEDB9AADDF87807C0ED25AADDF87807C0ED26AADDF87807C0ED27AADDF878074D
:209DA00000F140011AA8FEF718FADDF87807B7EE000AD0ED2B0A00EEE00A10EE100A08F0CB
:209DC00084FA41EC100B1FF043FC51EC100B08F0BFFA01EE900ADDF87807B0EE6A2A634AAA
:209DE00090ED100AD0ED2B2A00EE212A90ED110A00EE2A2A90ED120AF0EE420A40EE220A8A
:209E0000B0EE6A0AC0ED820ADDF8780790ED131A01EE210A90ED141A01EE2A0A90ED151A65
:209E200001EE220AB0EE6A1A80ED830ADDF8780790ED162A02EE211AD0ED171A01EEAA1A0E
:209E4000D0ED181A01EEA21A80ED841A9DED9A1A71EE600A9DED9B1A31EE400A8DED050A25
:209E6000DDF878079DEDA60A90ED841A30EE410A8DED060AC0ED190ADDF878079DED050A89
:209E800080ED1A0ADDF878079DED060A80ED1B0ADDF87807DDF87817DDF87837D0ED100A9E
:209EA00092F9000000EE100AB8EEC01AB0EE6A0A00EE810A91ED111A92F9011092F9022012
:209EC00000EE901AF8EEE00A01EE200A00EE902A93ED121AF8EEE00A01EE200ADDED9C0A54
:209EE00070EEC00A00EE100ACDED040AF8EEC01A93ED131AB0EE6A0A01EE210A01EE101AB8
:209F0000D3ED141AB8EEC11A01EE810A01EE102AD3ED151AB8EEC11A01EE810A9DED9E1A03
:209F200031EE400A8DED050A00EE100AD3ED161AB8EEC01AB0EE6A0A01EE810A01EE101A12
:209F4000D3ED171AB8EEC11A01EE810A01EE102AD3ED181AB8EEC11A01EE810A9DED9D1ABE
:209F600031EE400A04E000006666663F3F0C00208DED060AC3ED1C0ADDF878079DED050A6B
:209F800080ED1D0ADDF878079DED060A80ED1E0ADDF8780780ED229ADDF8780780ED23AA9F
:209FA000DDF8780795ED180A80ED240ADDF8780790ED2C0A10EE100A3044B84228BFB7EEF5
:209FC000000A3AEE400AAC9820AD68AEB0EEC00A80ED040AAC9890ED040AFD48D0ED150A0B
:209FE000AC9830EE20BA80ED05BA9DED20AAF0EE4BBAB4EECBAAF1EE10FA28BF9DED689A4F
:020000040800F2
:20A000004CD29DED29FAB4EECBFAF1EE10FAD8BF9DED719A42DDEE4890ED1E0B51EC100BA6
:20A0200008F096F99DED200A09EE100AB4EECB0AF1EE10FA32D8B4EECBFAF1EE10FA2DDB12
:20A04000012102230A228818400805EB800C1CED010AB4EECB0AF1EE10FA9ABF0146431CB6
:20A0600002469A42EFD8481C05EB800206EB800052ED010A05EB810212ED010A70EEC00ABF
:20A080003BEE401A81EE200A50ED010A06EB810010ED019A70EEC90A00EE209AB0EE6BBAB6
:20A0A00020ADB4EECBAA72AEF1EE10FA28BF9DED72AA4CD2DDED29BAF4EECBBAF1EE10FA0B
:20A0C000D8BF9DED7BAA42DDC14890ED1E0B51EC100B08F03DF99DED200A0AEE100AB4EE7E
:20A0E000CB0AF1EE10FA32D8F4EECBBAF1EE10FA2DDB012202200A2153185B0805EB830C83
:20A100001CED010AB4EECB0AF1EE10FA9ABF1A46581C19468142EFD8501C05EB800106EBE7
:20A12000800051ED010A05EB820111ED010A70EEC00A3BEE401A81EE200A50ED010A06EB5D
:20A14000820010ED01AA70EECA0A00EE20AAAC989DED5D0A5DADD0ED0CBA8AAEB4EEEB0A5A
:20A16000F1EE10FA28BF9DED8ABA4CD29DED63FAB4EEEBFAF1EE10FAD8BF9DED90BA42DD42
:20A18000934890ED1E0B51EC100B08F0E1F89DED5D0A0BEE100AB4EEEB0AF1EE10FA32D887
:20A1A000B4EEEBFAF1EE10FA2DDB0120022307228118490805EB810C1CED010AB4EEEB0AA6
:20A1C000F1EE10FA9ABF08464B1C0A469A42EFD8411C05EB810206EB810152ED010A05EB18
:20A1E000800206EB800012ED010A10ED01BA70EEC00A3BEEC01A81EE200A51ED010A70EE3F
:20A20000CB0A00EE20BADDF8780701469FED710A01F5177180EDF50ADDF8782700F58F60BD
:20A2200082EDF60ADDF8782782EDF70A1E2200BF90ED000AD1ED000ADDF8783730EE600A71
:20A24000C0EE290A93EDF50A30EE800A83EDF50AD0ED010A91ED010ADDF8783730EEC00ACA
:20A26000C0EE290A93EDF60A30EE800A83EDF60A90ED020AD1ED020ADDF87837243030EE1C
:20A28000600A0C31521EC0EE290A93EDF70A30EE800A83EDF70ACBD10020014640F20515DD
:20A2A000DDF878272B1A02EB8306C0F1FC02DDF8783706F58C6603EB820202F58C630930BE
:20A2C00093E8885FA6E8885FD2F88024491C32601C29E5DDDDF80C0790ED000AAC9880ED1B
:20A2E000180ADDF8100790ED000AAC9880ED1B0ADDF8140790ED000AAC9880ED1E0ADDF8CE
:20A300000C0790ED010AAC9880ED190ADDF8100790ED010AAC9880ED1C0ADDF8140790ED16
:20A32000010AAC9880ED1F0ADDF80C0790ED020AAC9880ED1A0ADDF8100790ED020AAC9839
:20A3400080ED1D0ADDF8140790ED020AAC9880ED200ADDF8780700F67400FDF7FAFFDDF895
:20A360007807F0EE40FA00F50860FDF7F2FF184D85ED180ADDF84406D0ED200AD0ED1E1A10
:20A3800080EE80FAD0ED1D0A80EEAF1AD0ED210AC0EE80BAC1EEAF0AD0ED221AC1EE80AAB0
:20A3A000D0ED1F1A04A881EEAF0A6BEE801A4AEEE01ACDED041A6AEE811A4FEE401A2FEE2F
:20A3C000200A0BEEC10ACDED051A8DED060A03E0380C002000000000FDF7BBFFF0EE401AFF
:20A3E0009DED040A37AAC0EE210ACDED040A9DED050A60EEAB2A80EE211A8DED051A9DEDBB
:20A40000062A41EE4F2A82EE210A21EE2A2A8DED060A60EE0F1A00EE6B2A40EEEA1A8DED36
:20A42000532ACDED540A8DED55FACDED561A8DED571ACDED58BACDED592A8DED5A0ACDED08
:20A440005BAADDF8780700F50E7153A8FDF7A1FF40A937A8FDF7E9F85FED22AADDF8780797
:20A46000DDED400ADDED411A9DED421AF0EE6ABAB0EE6AFA1E2100F58F6000BF90ED000A50
:20A4800080EE292A90ED010A72EE2AAA80EE292A90ED020A2430491E72EE2BBA80EE292A34
:20A4A00032EE0FFAEAD1D5ED142AF4EECE2AF1EE10FA3FBF95ED150AB4EEED0AF1EE10FAD4
:20A4C00095ED160A3CBFB4EECD0AF1EE10FA20D2DDF8140790ED000AB0EEC00A10EE101A84
:20A4E000FE48814215DADDF8141791ED010AB0EEC00A10EE101A81420BDADDF8141791ED25
:20A50000020AB0EEC00A10EE101A8142B8BF012000DB0020DDF84C1761B1012918BF0329D2
:20A5200035D0ADE0DDF8782702EB800282ED10FAFFF7EEBADDF8780780F80242DDF878072B
:20A5400080F80342DDF8780780F80442DDF8780790ED280AD0ED290A90ED2A1A80ED1F0AE2
:20A56000DDF87807C0ED200ADDF8780780ED211ADDF87807C0F85C44DDF8780790F83000FC
:20A5800000281CBFDDF8780780F8304097E0E8B3DDF87807D0F850140A2919D080F8024212
:20A5A000DDF8780780F80342DDF8780780F80442481C002903DD0028D8BF6FF00040DDF8D8
:20A5C0007817C1F85004DDF87807C0F85C4476E0DDF87817012081F80202DDF8781781F8FE
:20A5E0000302DDF8781781F80402DDF8141791ED000ADDF8781781ED1F0ADDF8141791ED72
:20A60000010ADDF8781781ED200A00E038E0DDF8141791ED020ADDF8781781ED210ADDF8DF
:20A620006C170870DDF87807D0F85C14481C002903DD0028D8BF6FF00040DDF87817C1F8AB
:20A640005C04DDF8781791F83010A9B1DDF8781791ED1F0A81ED280ADDF8781791ED200A5C
:20A6600081ED290ADDF8781791ED210A81ED2A0ADDF8781781F830401E2820D100F0C6BC94
:20A68000022934D0042900F0A882DDF87807C0F85044DDF8780790ED280AD0ED290A90ED34
:20A6A0002A1A80ED1F0ADDF87807C0ED200ADDF8780780ED211ADDF87807C0F85C441AEEE5
:20A6C000100A87498842DDF87807C0F2B98480F80242DDF8780780F80342DDF8780780F8EA
:20A6E0000442DDF87807C0F8584400F0C4BCDDF878070126B4EE002A80F80262DDF8780785
:20A7000080F80362DDF8780780F80462AC9890ED100A20EE020AF4EEC0EAF1EE10FA6FD879
:20A72000DDF8780790F8A4080028DDF8400790ED062A2BD0B6EE000A22EE002A80ED062A20
:20A74000DDF8400790ED072A22EE002A80ED072ADDF8400790ED082A22EE000A80ED080AF3
:20A76000DDF87807B0F8A608401CB0F5803F81F06D84DDF8781780B23228A1F8A60836D3CD
:20A78000DDF8780790F8A40888BB16E0B0EE080AC2EE002AC0ED062ADDF8400790ED072AC7
:20A7A000C2EE002AC0ED072ADDF84007D0ED082A82EE802A80ED082AD2E7DDF8400790EDCB
:20A7C000062A9FED480AC2EE002AC0ED062ADDF8400790ED072AC2EE002AC0ED072ADDF85D
:20A7E0004007D0ED082A82EE802A80ED082ADDF87807B0F8A608462803D0642815D0A2E08C
:20A8000035E0DDF8780790F8A40878BBDDF87807B7EE000A80ED4C0ADDF8780780ED560A81
:20A82000DDF8780780ED600ADAE0DDF8780790F8A408D8B9DDF8780780F8A468DDF87807EE
:20A8400090ED280ADDF8440680ED260ADDF8780790ED290ADDF8440680ED270ADDF8780778
:20A8600090ED2A0ADDF8440680ED280A70E0F4EECE2AF1EE10FA3FBF95ED150AB4EEED0A1E
:20A88000F1EE10FA95ED163A3CBFB4EECD3AF1EE10FA3CD29DEDA72A12EE100AB0F17C5F71
:20A8A00035DA82EE8E2AC0EE2D2A83EE0D0A32EE822A30EE020A10EE100AB0F17F5F26DA47
:20A8C000DDF84007B6EE000A90ED062A22EE002A80ED062ADDF8400706E00000CDCC4C3E05
:20A8E000000048425555D53F90ED072A22EE002A80ED072ADDF8400790ED082A22EE000AA5
:20A9000080ED080ADDF87807A0F8A6481BE0DDF8400790ED060A20EE0B0A80ED060ADDF8C5
